{
  "_format": "hh-sol-artifact-1",
  "contractName": "FiredGuys",
  "sourceName": "contracts/MyNFT.sol",
  "abi": [
    {
      "inputs": [],
      "stateMutability": "nonpayable",
      "type": "constructor"
    },
    {
      "anonymous": false,
      "inputs": [
        {
          "indexed": true,
          "internalType": "address",
          "name": "owner",
          "type": "address"
        },
        {
          "indexed": true,
          "internalType": "address",
          "name": "approved",
          "type": "address"
        },
        {
          "indexed": true,
          "internalType": "uint256",
          "name": "tokenId",
          "type": "uint256"
        }
      ],
      "name": "Approval",
      "type": "event"
    },
    {
      "anonymous": false,
      "inputs": [
        {
          "indexed": true,
          "internalType": "address",
          "name": "owner",
          "type": "address"
        },
        {
          "indexed": true,
          "internalType": "address",
          "name": "operator",
          "type": "address"
        },
        {
          "indexed": false,
          "internalType": "bool",
          "name": "approved",
          "type": "bool"
        }
      ],
      "name": "ApprovalForAll",
      "type": "event"
    },
    {
      "anonymous": false,
      "inputs": [
        {
          "indexed": true,
          "internalType": "address",
          "name": "previousOwner",
          "type": "address"
        },
        {
          "indexed": true,
          "internalType": "address",
          "name": "newOwner",
          "type": "address"
        }
      ],
      "name": "OwnershipTransferred",
      "type": "event"
    },
    {
      "anonymous": false,
      "inputs": [
        {
          "indexed": true,
          "internalType": "address",
          "name": "from",
          "type": "address"
        },
        {
          "indexed": true,
          "internalType": "address",
          "name": "to",
          "type": "address"
        },
        {
          "indexed": true,
          "internalType": "uint256",
          "name": "tokenId",
          "type": "uint256"
        }
      ],
      "name": "Transfer",
      "type": "event"
    },
    {
      "inputs": [
        {
          "internalType": "address",
          "name": "to",
          "type": "address"
        },
        {
          "internalType": "uint256",
          "name": "tokenId",
          "type": "uint256"
        }
      ],
      "name": "approve",
      "outputs": [],
      "stateMutability": "nonpayable",
      "type": "function"
    },
    {
      "inputs": [
        {
          "internalType": "address",
          "name": "owner",
          "type": "address"
        }
      ],
      "name": "balanceOf",
      "outputs": [
        {
          "internalType": "uint256",
          "name": "",
          "type": "uint256"
        }
      ],
      "stateMutability": "view",
      "type": "function"
    },
    {
      "inputs": [],
      "name": "count",
      "outputs": [
        {
          "internalType": "uint256",
          "name": "",
          "type": "uint256"
        }
      ],
      "stateMutability": "view",
      "type": "function"
    },
    {
      "inputs": [
        {
          "internalType": "uint256",
          "name": "tokenId",
          "type": "uint256"
        }
      ],
      "name": "getApproved",
      "outputs": [
        {
          "internalType": "address",
          "name": "",
          "type": "address"
        }
      ],
      "stateMutability": "view",
      "type": "function"
    },
    {
      "inputs": [
        {
          "internalType": "address",
          "name": "owner",
          "type": "address"
        },
        {
          "internalType": "address",
          "name": "operator",
          "type": "address"
        }
      ],
      "name": "isApprovedForAll",
      "outputs": [
        {
          "internalType": "bool",
          "name": "",
          "type": "bool"
        }
      ],
      "stateMutability": "view",
      "type": "function"
    },
    {
      "inputs": [
        {
          "internalType": "string",
          "name": "uri",
          "type": "string"
        }
      ],
      "name": "isContentOwned",
      "outputs": [
        {
          "internalType": "bool",
          "name": "",
          "type": "bool"
        }
      ],
      "stateMutability": "view",
      "type": "function"
    },
    {
      "inputs": [],
      "name": "name",
      "outputs": [
        {
          "internalType": "string",
          "name": "",
          "type": "string"
        }
      ],
      "stateMutability": "view",
      "type": "function"
    },
    {
      "inputs": [],
      "name": "owner",
      "outputs": [
        {
          "internalType": "address",
          "name": "",
          "type": "address"
        }
      ],
      "stateMutability": "view",
      "type": "function"
    },
    {
      "inputs": [
        {
          "internalType": "uint256",
          "name": "tokenId",
          "type": "uint256"
        }
      ],
      "name": "ownerOf",
      "outputs": [
        {
          "internalType": "address",
          "name": "",
          "type": "address"
        }
      ],
      "stateMutability": "view",
      "type": "function"
    },
    {
      "inputs": [
        {
          "internalType": "address",
          "name": "recipient",
          "type": "address"
        },
        {
          "internalType": "string",
          "name": "metadataURI",
          "type": "string"
        }
      ],
      "name": "payToMint",
      "outputs": [
        {
          "internalType": "uint256",
          "name": "",
          "type": "uint256"
        }
      ],
      "stateMutability": "payable",
      "type": "function"
    },
    {
      "inputs": [],
      "name": "renounceOwnership",
      "outputs": [],
      "stateMutability": "nonpayable",
      "type": "function"
    },
    {
      "inputs": [
        {
          "internalType": "address",
          "name": "to",
          "type": "address"
        },
        {
          "internalType": "string",
          "name": "uri",
          "type": "string"
        }
      ],
      "name": "safeMint",
      "outputs": [],
      "stateMutability": "nonpayable",
      "type": "function"
    },
    {
      "inputs": [
        {
          "internalType": "address",
          "name": "from",
          "type": "address"
        },
        {
          "internalType": "address",
          "name": "to",
          "type": "address"
        },
        {
          "internalType": "uint256",
          "name": "tokenId",
          "type": "uint256"
        }
      ],
      "name": "safeTransferFrom",
      "outputs": [],
      "stateMutability": "nonpayable",
      "type": "function"
    },
    {
      "inputs": [
        {
          "internalType": "address",
          "name": "from",
          "type": "address"
        },
        {
          "internalType": "address",
          "name": "to",
          "type": "address"
        },
        {
          "internalType": "uint256",
          "name": "tokenId",
          "type": "uint256"
        },
        {
          "internalType": "bytes",
          "name": "_data",
          "type": "bytes"
        }
      ],
      "name": "safeTransferFrom",
      "outputs": [],
      "stateMutability": "nonpayable",
      "type": "function"
    },
    {
      "inputs": [
        {
          "internalType": "address",
          "name": "operator",
          "type": "address"
        },
        {
          "internalType": "bool",
          "name": "approved",
          "type": "bool"
        }
      ],
      "name": "setApprovalForAll",
      "outputs": [],
      "stateMutability": "nonpayable",
      "type": "function"
    },
    {
      "inputs": [
        {
          "internalType": "bytes4",
          "name": "interfaceId",
          "type": "bytes4"
        }
      ],
      "name": "supportsInterface",
      "outputs": [
        {
          "internalType": "bool",
          "name": "",
          "type": "bool"
        }
      ],
      "stateMutability": "view",
      "type": "function"
    },
    {
      "inputs": [],
      "name": "symbol",
      "outputs": [
        {
          "internalType": "string",
          "name": "",
          "type": "string"
        }
      ],
      "stateMutability": "view",
      "type": "function"
    },
    {
      "inputs": [
        {
          "internalType": "uint256",
          "name": "tokenId",
          "type": "uint256"
        }
      ],
      "name": "tokenURI",
      "outputs": [
        {
          "internalType": "string",
          "name": "",
          "type": "string"
        }
      ],
      "stateMutability": "view",
      "type": "function"
    },
    {
      "inputs": [
        {
          "internalType": "address",
          "name": "from",
          "type": "address"
        },
        {
          "internalType": "address",
          "name": "to",
          "type": "address"
        },
        {
          "internalType": "uint256",
          "name": "tokenId",
          "type": "uint256"
        }
      ],
      "name": "transferFrom",
      "outputs": [],
      "stateMutability": "nonpayable",
      "type": "function"
    },
    {
      "inputs": [
        {
          "internalType": "address",
          "name": "newOwner",
          "type": "address"
        }
      ],
      "name": "transferOwnership",
      "outputs": [],
      "stateMutability": "nonpayable",
      "type": "function"
    }
  ],
  "bytecode": "0x60806040523480156200001157600080fd5b506040518060400160405280600981526020017f46697265644775797300000000000000000000000000000000000000000000008152506040518060400160405280600381526020017f4659520000000000000000000000000000000000000000000000000000000000815250816000908051906020019062000096929190620001a6565b508060019080519060200190620000af929190620001a6565b505050620000d2620000c6620000d860201b60201c565b620000e060201b60201c565b620002bb565b600033905090565b6000600760009054906101000a900473ffffffffffffffffffffffffffffffffffffffff16905081600760006101000a81548173ffffffffffffffffffffffffffffffffffffffff021916908373ffffffffffffffffffffffffffffffffffffffff1602179055508173ffffffffffffffffffffffffffffffffffffffff168173ffffffffffffffffffffffffffffffffffffffff167f8be0079c531659141344cd1fd0a4f28419497f9722a3daafe3b4186f6b6457e060405160405180910390a35050565b828054620001b49062000256565b90600052602060002090601f016020900481019282620001d8576000855562000224565b82601f10620001f357805160ff191683800117855562000224565b8280016001018555821562000224579182015b828111156200022357825182559160200191906001019062000206565b5b50905062000233919062000237565b5090565b5b808211156200025257600081600090555060010162000238565b5090565b600060028204905060018216806200026f57607f821691505b602082108114156200028657620002856200028c565b5b50919050565b7f4e487b7100000000000000000000000000000000000000000000000000000000600052602260045260246000fd5b6134bc80620002cb6000396000f3fe60806040526004361061011f5760003560e01c8063715018a6116100a0578063b88d4fde11610064578063b88d4fde146103ec578063c87b56dd14610415578063d204c45e14610452578063e985e9c51461047b578063f2fde38b146104b85761011f565b8063715018a6146103195780638da5cb5b1461033057806395d89b411461035b5780639f1cabc614610386578063a22cb465146103c35761011f565b806323b872dd116100e757806323b872dd1461021d57806342842e0e14610246578063615fd9e21461026f5780636352211e1461029f57806370a08231146102dc5761011f565b806301ffc9a71461012457806306661abd1461016157806306fdde031461018c578063081812fc146101b7578063095ea7b3146101f4575b600080fd5b34801561013057600080fd5b5061014b6004803603810190610146919061233b565b6104e1565b6040516101589190612825565b60405180910390f35b34801561016d57600080fd5b506101766105c3565b6040516101839190612ae2565b60405180910390f35b34801561019857600080fd5b506101a16105d4565b6040516101ae9190612840565b60405180910390f35b3480156101c357600080fd5b506101de60048036038101906101d991906123ce565b610666565b6040516101eb91906127be565b60405180910390f35b34801561020057600080fd5b5061021b600480360381019061021691906122ff565b6106eb565b005b34801561022957600080fd5b50610244600480360381019061023f91906121a5565b610803565b005b34801561025257600080fd5b5061026d600480360381019061026891906121a5565b610863565b005b610289600480360381019061028491906122ab565b610883565b6040516102969190612ae2565b60405180910390f35b3480156102ab57600080fd5b506102c660048036038101906102c191906123ce565b6109af565b6040516102d391906127be565b60405180910390f35b3480156102e857600080fd5b5061030360048036038101906102fe9190612140565b610a61565b6040516103109190612ae2565b60405180910390f35b34801561032557600080fd5b5061032e610b19565b005b34801561033c57600080fd5b50610345610ba1565b60405161035291906127be565b60405180910390f35b34801561036757600080fd5b50610370610bcb565b60405161037d9190612840565b60405180910390f35b34801561039257600080fd5b506103ad60048036038101906103a8919061238d565b610c5d565b6040516103ba9190612825565b60405180910390f35b3480156103cf57600080fd5b506103ea60048036038101906103e5919061226f565b610c98565b005b3480156103f857600080fd5b50610413600480360381019061040e91906121f4565b610cae565b005b34801561042157600080fd5b5061043c600480360381019061043791906123ce565b610d10565b6040516104499190612840565b60405180910390f35b34801561045e57600080fd5b50610479600480360381019061047491906122ab565b610d22565b005b34801561048757600080fd5b506104a2600480360381019061049d9190612169565b610e07565b6040516104af9190612825565b60405180910390f35b3480156104c457600080fd5b506104df60048036038101906104da9190612140565b610e9b565b005b60007f80ac58cd000000000000000000000000000000000000000000000000000000007bffffffffffffffffffffffffffffffffffffffffffffffffffffffff1916827bffffffffffffffffffffffffffffffffffffffffffffffffffffffff191614806105ac57507f5b5e139f000000000000000000000000000000000000000000000000000000007bffffffffffffffffffffffffffffffffffffffffffffffffffffffff1916827bffffffffffffffffffffffffffffffffffffffffffffffffffffffff1916145b806105bc57506105bb82610f93565b5b9050919050565b60006105cf6008610ffd565b905090565b6060600080546105e390612d38565b80601f016020809104026020016040519081016040528092919081815260200182805461060f90612d38565b801561065c5780601f106106315761010080835404028352916020019161065c565b820191906000526020600020905b81548152906001019060200180831161063f57829003601f168201915b5050505050905090565b60006106718261100b565b6106b0576040517f08c379a00000000000000000000000000000000000000000000000000000000081526004016106a7906129e2565b60405180910390fd5b6004600083815260200190815260200160002060009054906101000a900473ffffffffffffffffffffffffffffffffffffffff169050919050565b60006106f6826109af565b90508073ffffffffffffffffffffffffffffffffffffffff168373ffffffffffffffffffffffffffffffffffffffff161415610767576040517f08c379a000000000000000000000000000000000000000000000000000000000815260040161075e90612a62565b60405180910390fd5b8073ffffffffffffffffffffffffffffffffffffffff16610786611077565b73ffffffffffffffffffffffffffffffffffffffff1614806107b557506107b4816107af611077565b610e07565b5b6107f4576040517f08c379a00000000000000000000000000000000000000000000000000000000081526004016107eb90612922565b60405180910390fd5b6107fe838361107f565b505050565b61081461080e611077565b82611138565b610853576040517f08c379a000000000000000000000000000000000000000000000000000000000815260040161084a90612a82565b60405180910390fd5b61085e838383611216565b505050565b61087e83838360405180602001604052806000815250610cae565b505050565b600060016009836040516108979190612783565b908152602001604051809103902060009054906101000a900460ff1660ff1614156108f7576040517f08c379a00000000000000000000000000000000000000000000000000000000081526004016108ee90612aa2565b60405180910390fd5b66b1a2bc2ec50000341015610941576040517f08c379a000000000000000000000000000000000000000000000000000000000815260040161093890612ac2565b60405180910390fd5b600061094d6008610ffd565b90506109596008611472565b600160098460405161096b9190612783565b908152602001604051809103902060006101000a81548160ff021916908360ff16021790555061099b8482611488565b6109a58184611656565b8091505092915050565b6000806002600084815260200190815260200160002060009054906101000a900473ffffffffffffffffffffffffffffffffffffffff169050600073ffffffffffffffffffffffffffffffffffffffff168173ffffffffffffffffffffffffffffffffffffffff161415610a58576040517f08c379a0000000000000000000000000000000000000000000000000000000008152600401610a4f90612962565b60405180910390fd5b80915050919050565b60008073ffffffffffffffffffffffffffffffffffffffff168273ffffffffffffffffffffffffffffffffffffffff161415610ad2576040517f08c379a0000000000000000000000000000000000000000000000000000000008152600401610ac990612942565b60405180910390fd5b600360008373ffffffffffffffffffffffffffffffffffffffff1673ffffffffffffffffffffffffffffffffffffffff168152602001908152602001600020549050919050565b610b21611077565b73ffffffffffffffffffffffffffffffffffffffff16610b3f610ba1565b73ffffffffffffffffffffffffffffffffffffffff1614610b95576040517f08c379a0000000000000000000000000000000000000000000000000000000008152600401610b8c90612a02565b60405180910390fd5b610b9f60006116ca565b565b6000600760009054906101000a900473ffffffffffffffffffffffffffffffffffffffff16905090565b606060018054610bda90612d38565b80601f0160208091040260200160405190810160405280929190818152602001828054610c0690612d38565b8015610c535780601f10610c2857610100808354040283529160200191610c53565b820191906000526020600020905b815481529060010190602001808311610c3657829003601f168201915b5050505050905090565b60006001600983604051610c719190612783565b908152602001604051809103902060009054906101000a900460ff1660ff16149050919050565b610caa610ca3611077565b8383611790565b5050565b610cbf610cb9611077565b83611138565b610cfe576040517f08c379a0000000000000000000000000000000000000000000000000000000008152600401610cf590612a82565b60405180910390fd5b610d0a848484846118fd565b50505050565b6060610d1b82611959565b9050919050565b610d2a611077565b73ffffffffffffffffffffffffffffffffffffffff16610d48610ba1565b73ffffffffffffffffffffffffffffffffffffffff1614610d9e576040517f08c379a0000000000000000000000000000000000000000000000000000000008152600401610d9590612a02565b60405180910390fd5b6000610daa6008610ffd565b9050610db66008611472565b610dc08382611aab565b610dca8183611656565b6001600983604051610ddc9190612783565b908152602001604051809103902060006101000a81548160ff021916908360ff160217905550505050565b6000600560008473ffffffffffffffffffffffffffffffffffffffff1673ffffffffffffffffffffffffffffffffffffffff16815260200190815260200160002060008373ffffffffffffffffffffffffffffffffffffffff1673ffffffffffffffffffffffffffffffffffffffff16815260200190815260200160002060009054906101000a900460ff16905092915050565b610ea3611077565b73ffffffffffffffffffffffffffffffffffffffff16610ec1610ba1565b73ffffffffffffffffffffffffffffffffffffffff1614610f17576040517f08c379a0000000000000000000000000000000000000000000000000000000008152600401610f0e90612a02565b60405180910390fd5b600073ffffffffffffffffffffffffffffffffffffffff168173ffffffffffffffffffffffffffffffffffffffff161415610f87576040517f08c379a0000000000000000000000000000000000000000000000000000000008152600401610f7e90612882565b60405180910390fd5b610f90816116ca565b50565b60007f01ffc9a7000000000000000000000000000000000000000000000000000000007bffffffffffffffffffffffffffffffffffffffffffffffffffffffff1916827bffffffffffffffffffffffffffffffffffffffffffffffffffffffff1916149050919050565b600081600001549050919050565b60008073ffffffffffffffffffffffffffffffffffffffff166002600084815260200190815260200160002060009054906101000a900473ffffffffffffffffffffffffffffffffffffffff1673ffffffffffffffffffffffffffffffffffffffff1614159050919050565b600033905090565b816004600083815260200190815260200160002060006101000a81548173ffffffffffffffffffffffffffffffffffffffff021916908373ffffffffffffffffffffffffffffffffffffffff160217905550808273ffffffffffffffffffffffffffffffffffffffff166110f2836109af565b73ffffffffffffffffffffffffffffffffffffffff167f8c5be1e5ebec7d5bd14f71427d1e84f3dd0314c0f7b2291e5b200ac8c7c3b92560405160405180910390a45050565b60006111438261100b565b611182576040517f08c379a000000000000000000000000000000000000000000000000000000000815260040161117990612902565b60405180910390fd5b600061118d836109af565b90508073ffffffffffffffffffffffffffffffffffffffff168473ffffffffffffffffffffffffffffffffffffffff1614806111fc57508373ffffffffffffffffffffffffffffffffffffffff166111e484610666565b73ffffffffffffffffffffffffffffffffffffffff16145b8061120d575061120c8185610e07565b5b91505092915050565b8273ffffffffffffffffffffffffffffffffffffffff16611236826109af565b73ffffffffffffffffffffffffffffffffffffffff161461128c576040517f08c379a000000000000000000000000000000000000000000000000000000000815260040161128390612a22565b60405180910390fd5b600073ffffffffffffffffffffffffffffffffffffffff168273ffffffffffffffffffffffffffffffffffffffff1614156112fc576040517f08c379a00000000000000000000000000000000000000000000000000000000081526004016112f3906128c2565b60405180910390fd5b611307838383611ac9565b61131260008261107f565b6001600360008573ffffffffffffffffffffffffffffffffffffffff1673ffffffffffffffffffffffffffffffffffffffff16815260200190815260200160002060008282546113629190612c4e565b925050819055506001600360008473ffffffffffffffffffffffffffffffffffffffff1673ffffffffffffffffffffffffffffffffffffffff16815260200190815260200160002060008282546113b99190612bc7565b92505081905550816002600083815260200190815260200160002060006101000a81548173ffffffffffffffffffffffffffffffffffffffff021916908373ffffffffffffffffffffffffffffffffffffffff160217905550808273ffffffffffffffffffffffffffffffffffffffff168473ffffffffffffffffffffffffffffffffffffffff167fddf252ad1be2c89b69c2b068fc378daa952ba7f163c4a11628f55a4df523b3ef60405160405180910390a4505050565b6001816000016000828254019250508190555050565b600073ffffffffffffffffffffffffffffffffffffffff168273ffffffffffffffffffffffffffffffffffffffff1614156114f8576040517f08c379a00000000000000000000000000000000000000000000000000000000081526004016114ef906129a2565b60405180910390fd5b6115018161100b565b15611541576040517f08c379a0000000000000000000000000000000000000000000000000000000008152600401611538906128a2565b60405180910390fd5b61154d60008383611ac9565b6001600360008473ffffffffffffffffffffffffffffffffffffffff1673ffffffffffffffffffffffffffffffffffffffff168152602001908152602001600020600082825461159d9190612bc7565b92505081905550816002600083815260200190815260200160002060006101000a81548173ffffffffffffffffffffffffffffffffffffffff021916908373ffffffffffffffffffffffffffffffffffffffff160217905550808273ffffffffffffffffffffffffffffffffffffffff16600073ffffffffffffffffffffffffffffffffffffffff167fddf252ad1be2c89b69c2b068fc378daa952ba7f163c4a11628f55a4df523b3ef60405160405180910390a45050565b61165f8261100b565b61169e576040517f08c379a000000000000000000000000000000000000000000000000000000000815260040161169590612982565b60405180910390fd5b806006600084815260200190815260200160002090805190602001906116c5929190611f64565b505050565b6000600760009054906101000a900473ffffffffffffffffffffffffffffffffffffffff16905081600760006101000a81548173ffffffffffffffffffffffffffffffffffffffff021916908373ffffffffffffffffffffffffffffffffffffffff1602179055508173ffffffffffffffffffffffffffffffffffffffff168173ffffffffffffffffffffffffffffffffffffffff167f8be0079c531659141344cd1fd0a4f28419497f9722a3daafe3b4186f6b6457e060405160405180910390a35050565b8173ffffffffffffffffffffffffffffffffffffffff168373ffffffffffffffffffffffffffffffffffffffff1614156117ff576040517f08c379a00000000000000000000000000000000000000000000000000000000081526004016117f6906128e2565b60405180910390fd5b80600560008573ffffffffffffffffffffffffffffffffffffffff1673ffffffffffffffffffffffffffffffffffffffff16815260200190815260200160002060008473ffffffffffffffffffffffffffffffffffffffff1673ffffffffffffffffffffffffffffffffffffffff16815260200190815260200160002060006101000a81548160ff0219169083151502179055508173ffffffffffffffffffffffffffffffffffffffff168373ffffffffffffffffffffffffffffffffffffffff167f17307eab39ab6107e8899845ad3d59bd9653f200f220920489ca2b5937696c31836040516118f09190612825565b60405180910390a3505050565b611908848484611216565b61191484848484611ace565b611953576040517f08c379a000000000000000000000000000000000000000000000000000000000815260040161194a90612862565b60405180910390fd5b50505050565b60606119648261100b565b6119a3576040517f08c379a000000000000000000000000000000000000000000000000000000000815260040161199a906129c2565b60405180910390fd5b60006006600084815260200190815260200160002080546119c390612d38565b80601f01602080910402602001604051908101604052809291908181526020018280546119ef90612d38565b8015611a3c5780601f10611a1157610100808354040283529160200191611a3c565b820191906000526020600020905b815481529060010190602001808311611a1f57829003601f168201915b505050505090506000611a4d611c65565b9050600081511415611a63578192505050611aa6565b600082511115611a98578082604051602001611a8092919061279a565b60405160208183030381529060405292505050611aa6565b611aa184611ca2565b925050505b919050565b611ac5828260405180602001604052806000815250611d49565b5050565b505050565b6000611aef8473ffffffffffffffffffffffffffffffffffffffff16611da4565b15611c58578373ffffffffffffffffffffffffffffffffffffffff1663150b7a02611b18611077565b8786866040518563ffffffff1660e01b8152600401611b3a94939291906127d9565b602060405180830381600087803b158015611b5457600080fd5b505af1925050508015611b8557506040513d601f19601f82011682018060405250810190611b829190612364565b60015b611c08573d8060008114611bb5576040519150601f19603f3d011682016040523d82523d6000602084013e611bba565b606091505b50600081511415611c00576040517f08c379a0000000000000000000000000000000000000000000000000000000008152600401611bf790612862565b60405180910390fd5b805181602001fd5b63150b7a0260e01b7bffffffffffffffffffffffffffffffffffffffffffffffffffffffff1916817bffffffffffffffffffffffffffffffffffffffffffffffffffffffff191614915050611c5d565b600190505b949350505050565b60606040518060400160405280600781526020017f697066733a2f2f00000000000000000000000000000000000000000000000000815250905090565b6060611cad8261100b565b611cec576040517f08c379a0000000000000000000000000000000000000000000000000000000008152600401611ce390612a42565b60405180910390fd5b6000611cf6611c65565b90506000815111611d165760405180602001604052806000815250611d41565b80611d2084611db7565b604051602001611d3192919061279a565b6040516020818303038152906040525b915050919050565b611d538383611488565b611d606000848484611ace565b611d9f576040517f08c379a0000000000000000000000000000000000000000000000000000000008152600401611d9690612862565b60405180910390fd5b505050565b600080823b905060008111915050919050565b60606000821415611dff576040518060400160405280600181526020017f30000000000000000000000000000000000000000000000000000000000000008152509050611f5f565b600082905060005b60008214611e31578080611e1a90612d9b565b915050600a82611e2a9190612c1d565b9150611e07565b60008167ffffffffffffffff811115611e73577f4e487b7100000000000000000000000000000000000000000000000000000000600052604160045260246000fd5b6040519080825280601f01601f191660200182016040528015611ea55781602001600182028036833780820191505090505b5090505b60008514611f5857600182611ebe9190612c4e565b9150600a85611ecd9190612de4565b6030611ed99190612bc7565b60f81b818381518110611f15577f4e487b7100000000000000000000000000000000000000000000000000000000600052603260045260246000fd5b60200101907effffffffffffffffffffffffffffffffffffffffffffffffffffffffffffff1916908160001a905350600a85611f519190612c1d565b9450611ea9565b8093505050505b919050565b828054611f7090612d38565b90600052602060002090601f016020900481019282611f925760008555611fd9565b82601f10611fab57805160ff1916838001178555611fd9565b82800160010185558215611fd9579182015b82811115611fd8578251825591602001919060010190611fbd565b5b509050611fe69190611fea565b5090565b5b80821115612003576000816000905550600101611feb565b5090565b600061201a61201584612b22565b612afd565b90508281526020810184848401111561203257600080fd5b61203d848285612cf6565b509392505050565b600061205861205384612b53565b612afd565b90508281526020810184848401111561207057600080fd5b61207b848285612cf6565b509392505050565b6000813590506120928161342a565b92915050565b6000813590506120a781613441565b92915050565b6000813590506120bc81613458565b92915050565b6000815190506120d181613458565b92915050565b600082601f8301126120e857600080fd5b81356120f8848260208601612007565b91505092915050565b600082601f83011261211257600080fd5b8135612122848260208601612045565b91505092915050565b60008135905061213a8161346f565b92915050565b60006020828403121561215257600080fd5b600061216084828501612083565b91505092915050565b6000806040838503121561217c57600080fd5b600061218a85828601612083565b925050602061219b85828601612083565b9150509250929050565b6000806000606084860312156121ba57600080fd5b60006121c886828701612083565b93505060206121d986828701612083565b92505060406121ea8682870161212b565b9150509250925092565b6000806000806080858703121561220a57600080fd5b600061221887828801612083565b945050602061222987828801612083565b935050604061223a8782880161212b565b925050606085013567ffffffffffffffff81111561225757600080fd5b612263878288016120d7565b91505092959194509250565b6000806040838503121561228257600080fd5b600061229085828601612083565b92505060206122a185828601612098565b9150509250929050565b600080604083850312156122be57600080fd5b60006122cc85828601612083565b925050602083013567ffffffffffffffff8111156122e957600080fd5b6122f585828601612101565b9150509250929050565b6000806040838503121561231257600080fd5b600061232085828601612083565b92505060206123318582860161212b565b9150509250929050565b60006020828403121561234d57600080fd5b600061235b848285016120ad565b91505092915050565b60006020828403121561237657600080fd5b6000612384848285016120c2565b91505092915050565b60006020828403121561239f57600080fd5b600082013567ffffffffffffffff8111156123b957600080fd5b6123c584828501612101565b91505092915050565b6000602082840312156123e057600080fd5b60006123ee8482850161212b565b91505092915050565b61240081612c82565b82525050565b61240f81612c94565b82525050565b600061242082612b84565b61242a8185612b9a565b935061243a818560208601612d05565b61244381612ed1565b840191505092915050565b600061245982612b8f565b6124638185612bab565b9350612473818560208601612d05565b61247c81612ed1565b840191505092915050565b600061249282612b8f565b61249c8185612bbc565b93506124ac818560208601612d05565b80840191505092915050565b60006124c5603283612bab565b91506124d082612ee2565b604082019050919050565b60006124e8602683612bab565b91506124f382612f31565b604082019050919050565b600061250b601c83612bab565b915061251682612f80565b602082019050919050565b600061252e602483612bab565b915061253982612fa9565b604082019050919050565b6000612551601983612bab565b915061255c82612ff8565b602082019050919050565b6000612574602c83612bab565b915061257f82613021565b604082019050919050565b6000612597603883612bab565b91506125a282613070565b604082019050919050565b60006125ba602a83612bab565b91506125c5826130bf565b604082019050919050565b60006125dd602983612bab565b91506125e88261310e565b604082019050919050565b6000612600602e83612bab565b915061260b8261315d565b604082019050919050565b6000612623602083612bab565b915061262e826131ac565b602082019050919050565b6000612646603183612bab565b9150612651826131d5565b604082019050919050565b6000612669602c83612bab565b915061267482613224565b604082019050919050565b600061268c602083612bab565b915061269782613273565b602082019050919050565b60006126af602983612bab565b91506126ba8261329c565b604082019050919050565b60006126d2602f83612bab565b91506126dd826132eb565b604082019050919050565b60006126f5602183612bab565b91506127008261333a565b604082019050919050565b6000612718603183612bab565b915061272382613389565b604082019050919050565b600061273b601383612bab565b9150612746826133d8565b602082019050919050565b600061275e600f83612bab565b915061276982613401565b602082019050919050565b61277d81612cec565b82525050565b600061278f8284612487565b915081905092915050565b60006127a68285612487565b91506127b28284612487565b91508190509392505050565b60006020820190506127d360008301846123f7565b92915050565b60006080820190506127ee60008301876123f7565b6127fb60208301866123f7565b6128086040830185612774565b818103606083015261281a8184612415565b905095945050505050565b600060208201905061283a6000830184612406565b92915050565b6000602082019050818103600083015261285a818461244e565b905092915050565b6000602082019050818103600083015261287b816124b8565b9050919050565b6000602082019050818103600083015261289b816124db565b9050919050565b600060208201905081810360008301526128bb816124fe565b9050919050565b600060208201905081810360008301526128db81612521565b9050919050565b600060208201905081810360008301526128fb81612544565b9050919050565b6000602082019050818103600083015261291b81612567565b9050919050565b6000602082019050818103600083015261293b8161258a565b9050919050565b6000602082019050818103600083015261295b816125ad565b9050919050565b6000602082019050818103600083015261297b816125d0565b9050919050565b6000602082019050818103600083015261299b816125f3565b9050919050565b600060208201905081810360008301526129bb81612616565b9050919050565b600060208201905081810360008301526129db81612639565b9050919050565b600060208201905081810360008301526129fb8161265c565b9050919050565b60006020820190508181036000830152612a1b8161267f565b9050919050565b60006020820190508181036000830152612a3b816126a2565b9050919050565b60006020820190508181036000830152612a5b816126c5565b9050919050565b60006020820190508181036000830152612a7b816126e8565b9050919050565b60006020820190508181036000830152612a9b8161270b565b9050919050565b60006020820190508181036000830152612abb8161272e565b9050919050565b60006020820190508181036000830152612adb81612751565b9050919050565b6000602082019050612af76000830184612774565b92915050565b6000612b07612b18565b9050612b138282612d6a565b919050565b6000604051905090565b600067ffffffffffffffff821115612b3d57612b3c612ea2565b5b612b4682612ed1565b9050602081019050919050565b600067ffffffffffffffff821115612b6e57612b6d612ea2565b5b612b7782612ed1565b9050602081019050919050565b600081519050919050565b600081519050919050565b600082825260208201905092915050565b600082825260208201905092915050565b600081905092915050565b6000612bd282612cec565b9150612bdd83612cec565b9250827fffffffffffffffffffffffffffffffffffffffffffffffffffffffffffffffff03821115612c1257612c11612e15565b5b828201905092915050565b6000612c2882612cec565b9150612c3383612cec565b925082612c4357612c42612e44565b5b828204905092915050565b6000612c5982612cec565b9150612c6483612cec565b925082821015612c7757612c76612e15565b5b828203905092915050565b6000612c8d82612ccc565b9050919050565b60008115159050919050565b60007fffffffff0000000000000000000000000000000000000000000000000000000082169050919050565b600073ffffffffffffffffffffffffffffffffffffffff82169050919050565b6000819050919050565b82818337600083830152505050565b60005b83811015612d23578082015181840152602081019050612d08565b83811115612d32576000848401525b50505050565b60006002820490506001821680612d5057607f821691505b60208210811415612d6457612d63612e73565b5b50919050565b612d7382612ed1565b810181811067ffffffffffffffff82111715612d9257612d91612ea2565b5b80604052505050565b6000612da682612cec565b91507fffffffffffffffffffffffffffffffffffffffffffffffffffffffffffffffff821415612dd957612dd8612e15565b5b600182019050919050565b6000612def82612cec565b9150612dfa83612cec565b925082612e0a57612e09612e44565b5b828206905092915050565b7f4e487b7100000000000000000000000000000000000000000000000000000000600052601160045260246000fd5b7f4e487b7100000000000000000000000000000000000000000000000000000000600052601260045260246000fd5b7f4e487b7100000000000000000000000000000000000000000000000000000000600052602260045260246000fd5b7f4e487b7100000000000000000000000000000000000000000000000000000000600052604160045260246000fd5b6000601f19601f8301169050919050565b7f4552433732313a207472616e7366657220746f206e6f6e20455243373231526560008201527f63656976657220696d706c656d656e7465720000000000000000000000000000602082015250565b7f4f776e61626c653a206e6577206f776e657220697320746865207a65726f206160008201527f6464726573730000000000000000000000000000000000000000000000000000602082015250565b7f4552433732313a20746f6b656e20616c7265616479206d696e74656400000000600082015250565b7f4552433732313a207472616e7366657220746f20746865207a65726f2061646460008201527f7265737300000000000000000000000000000000000000000000000000000000602082015250565b7f4552433732313a20617070726f766520746f2063616c6c657200000000000000600082015250565b7f4552433732313a206f70657261746f7220717565727920666f72206e6f6e657860008201527f697374656e7420746f6b656e0000000000000000000000000000000000000000602082015250565b7f4552433732313a20617070726f76652063616c6c6572206973206e6f74206f7760008201527f6e6572206e6f7220617070726f76656420666f7220616c6c0000000000000000602082015250565b7f4552433732313a2062616c616e636520717565727920666f7220746865207a6560008201527f726f206164647265737300000000000000000000000000000000000000000000602082015250565b7f4552433732313a206f776e657220717565727920666f72206e6f6e657869737460008201527f656e7420746f6b656e0000000000000000000000000000000000000000000000602082015250565b7f45524337323155524953746f726167653a2055524920736574206f66206e6f6e60008201527f6578697374656e7420746f6b656e000000000000000000000000000000000000602082015250565b7f4552433732313a206d696e7420746f20746865207a65726f2061646472657373600082015250565b7f45524337323155524953746f726167653a2055524920717565727920666f722060008201527f6e6f6e6578697374656e7420746f6b656e000000000000000000000000000000602082015250565b7f4552433732313a20617070726f76656420717565727920666f72206e6f6e657860008201527f697374656e7420746f6b656e0000000000000000000000000000000000000000602082015250565b7f4f776e61626c653a2063616c6c6572206973206e6f7420746865206f776e6572600082015250565b7f4552433732313a207472616e73666572206f6620746f6b656e2074686174206960008201527f73206e6f74206f776e0000000000000000000000000000000000000000000000602082015250565b7f4552433732314d657461646174613a2055524920717565727920666f72206e6f60008201527f6e6578697374656e7420746f6b656e0000000000000000000000000000000000602082015250565b7f4552433732313a20617070726f76616c20746f2063757272656e74206f776e6560008201527f7200000000000000000000000000000000000000000000000000000000000000602082015250565b7f4552433732313a207472616e736665722063616c6c6572206973206e6f74206f60008201527f776e6572206e6f7220617070726f766564000000000000000000000000000000602082015250565b7f4e465420616c7265616479206d696e7465642100000000000000000000000000600082015250565b7f4e65656420746f20706179207570210000000000000000000000000000000000600082015250565b61343381612c82565b811461343e57600080fd5b50565b61344a81612c94565b811461345557600080fd5b50565b61346181612ca0565b811461346c57600080fd5b50565b61347881612cec565b811461348357600080fd5b5056fea2646970667358221220e97fe9c8838c0198b7bcfa83ab0052f488108a6309c732a0fd796e86812766b964736f6c63430008040033",
  "linkReferences": {},
  "deployedLinkReferences": {}
}